:020000040000FA
:020000000928CD
:040002000034003492
:080008008B1388148B108B1779
:100010000900831603130030880083160313FF3092
:10002000860001178B100B168B17831203130030F9
:10003000A8000030AA00003088002030A500AF20C2
:10004000061823285D287F2005302802031D292853
:10005000572804302802031D362805308807A503D9
:10006000A503A503A503A50B1F281B280330280201
:10007000031D422804308807A503A503A503A50B8B
:100080001F281B2802302802031D4D280330880733
:10009000A503A503A50B1F281B2801302802031D5B
:1000A000572802308807A503A50B1F281B280130FD
:1000B0008807A50B1F281B281F28A90A053029021D
:1000C000031D67280030A9000530A800232804304C
:1000D0002902031D6E280430A800232803302902BA
:1000E000031D75280330A800232802302902031DB0
:1000F0007C280230A80023280130A80023280530DE
:100100002A02031D8428A02804302A02031D8B28FC
:100110001430AE00A22803302A02031D92281030AA
:10012000AE00A22802302A02031D99280C30AE002E
:10013000A22801302A02031DA0280830AE00A22800
:100140000430AE00C830AD00FA30AC000000000052
:10015000AC0BA628AD0BA428AE0BA228080086186D
:10016000D628AB0A05302B02031DBB280030AB009C
:100170000530AA00D62804302B02031DC228043003
:10018000AA00D62803302B02031DC9280330AA0079
:10019000D62802302B02031DD0280230AA00D62810
:0E01A00001302B02031DD6280130AA000800F2
:02400E00313748
:00000001FF
